{
  "_format": "hh-sol-artifact-1",
  "contractName": "Mame42",
  "sourceName": "code/Mame42.sol",
  "abi": [
    {
      "inputs": [
        {
          "internalType": "string",
          "name": "uri",
          "type": "string"
        },
        {
          "internalType": "uint256",
          "name": "newPrice",
          "type": "uint256"
        }
      ],
      "stateMutability": "nonpayable",
      "type": "constructor"
    },
    {
      "inputs": [
        {
          "internalType": "address",
          "name": "sender",
          "type": "address"
        },
        {
          "internalType": "uint256",
          "name": "tokenId",
          "type": "uint256"
        },
        {
          "internalType": "address",
          "name": "owner",
          "type": "address"
        }
      ],
      "name": "ERC721IncorrectOwner",
      "type": "error"
    },
    {
      "inputs": [
        {
          "internalType": "address",
          "name": "operator",
          "type": "address"
        },
        {
          "internalType": "uint256",
          "name": "tokenId",
          "type": "uint256"
        }
      ],
      "name": "ERC721InsufficientApproval",
      "type": "error"
    },
    {
      "inputs": [
        {
          "internalType": "address",
          "name": "approver",
          "type": "address"
        }
      ],
      "name": "ERC721InvalidApprover",
      "type": "error"
    },
    {
      "inputs": [
        {
          "internalType": "address",
          "name": "operator",
          "type": "address"
        }
      ],
      "name": "ERC721InvalidOperator",
      "type": "error"
    },
    {
      "inputs": [
        {
          "internalType": "address",
          "name": "owner",
          "type": "address"
        }
      ],
      "name": "ERC721InvalidOwner",
      "type": "error"
    },
    {
      "inputs": [
        {
          "internalType": "address",
          "name": "receiver",
          "type": "address"
        }
      ],
      "name": "ERC721InvalidReceiver",
      "type": "error"
    },
    {
      "inputs": [
        {
          "internalType": "address",
          "name": "sender",
          "type": "address"
        }
      ],
      "name": "ERC721InvalidSender",
      "type": "error"
    },
    {
      "inputs": [
        {
          "internalType": "uint256",
          "name": "tokenId",
          "type": "uint256"
        }
      ],
      "name": "ERC721NonexistentToken",
      "type": "error"
    },
    {
      "inputs": [
        {
          "internalType": "address",
          "name": "owner",
          "type": "address"
        }
      ],
      "name": "OwnableInvalidOwner",
      "type": "error"
    },
    {
      "inputs": [
        {
          "internalType": "address",
          "name": "account",
          "type": "address"
        }
      ],
      "name": "OwnableUnauthorizedAccount",
      "type": "error"
    },
    {
      "anonymous": false,
      "inputs": [
        {
          "indexed": true,
          "internalType": "address",
          "name": "owner",
          "type": "address"
        },
        {
          "indexed": true,
          "internalType": "address",
          "name": "approved",
          "type": "address"
        },
        {
          "indexed": true,
          "internalType": "uint256",
          "name": "tokenId",
          "type": "uint256"
        }
      ],
      "name": "Approval",
      "type": "event"
    },
    {
      "anonymous": false,
      "inputs": [
        {
          "indexed": true,
          "internalType": "address",
          "name": "owner",
          "type": "address"
        },
        {
          "indexed": true,
          "internalType": "address",
          "name": "operator",
          "type": "address"
        },
        {
          "indexed": false,
          "internalType": "bool",
          "name": "approved",
          "type": "bool"
        }
      ],
      "name": "ApprovalForAll",
      "type": "event"
    },
    {
      "anonymous": false,
      "inputs": [
        {
          "indexed": false,
          "internalType": "uint256",
          "name": "_fromTokenId",
          "type": "uint256"
        },
        {
          "indexed": false,
          "internalType": "uint256",
          "name": "_toTokenId",
          "type": "uint256"
        }
      ],
      "name": "BatchMetadataUpdate",
      "type": "event"
    },
    {
      "anonymous": false,
      "inputs": [
        {
          "indexed": false,
          "internalType": "uint256",
          "name": "_tokenId",
          "type": "uint256"
        }
      ],
      "name": "MetadataUpdate",
      "type": "event"
    },
    {
      "anonymous": false,
      "inputs": [
        {
          "indexed": false,
          "internalType": "address",
          "name": "newOwner",
          "type": "address"
        },
        {
          "indexed": false,
          "internalType": "uint256",
          "name": "sellPrice",
          "type": "uint256"
        }
      ],
      "name": "NftMinted",
      "type": "event"
    },
    {
      "anonymous": false,
      "inputs": [
        {
          "indexed": true,
          "internalType": "address",
          "name": "previousOwner",
          "type": "address"
        },
        {
          "indexed": true,
          "internalType": "address",
          "name": "newOwner",
          "type": "address"
        }
      ],
      "name": "OwnershipTransferred",
      "type": "event"
    },
    {
      "anonymous": false,
      "inputs": [
        {
          "indexed": false,
          "internalType": "address",
          "name": "author",
          "type": "address"
        },
        {
          "indexed": false,
          "internalType": "uint256",
          "name": "newPrice",
          "type": "uint256"
        }
      ],
      "name": "PriceSet",
      "type": "event"
    },
    {
      "anonymous": false,
      "inputs": [
        {
          "indexed": true,
          "internalType": "address",
          "name": "from",
          "type": "address"
        },
        {
          "indexed": true,
          "internalType": "address",
          "name": "to",
          "type": "address"
        },
        {
          "indexed": true,
          "internalType": "uint256",
          "name": "tokenId",
          "type": "uint256"
        }
      ],
      "name": "Transfer",
      "type": "event"
    },
    {
      "inputs": [
        {
          "internalType": "address",
          "name": "to",
          "type": "address"
        },
        {
          "internalType": "uint256",
          "name": "tokenId",
          "type": "uint256"
        }
      ],
      "name": "approve",
      "outputs": [],
      "stateMutability": "nonpayable",
      "type": "function"
    },
    {
      "inputs": [
        {
          "internalType": "address",
          "name": "owner",
          "type": "address"
        }
      ],
      "name": "balanceOf",
      "outputs": [
        {
          "internalType": "uint256",
          "name": "",
          "type": "uint256"
        }
      ],
      "stateMutability": "view",
      "type": "function"
    },
    {
      "inputs": [
        {
          "internalType": "uint256",
          "name": "tokenId",
          "type": "uint256"
        }
      ],
      "name": "getApproved",
      "outputs": [
        {
          "internalType": "address",
          "name": "",
          "type": "address"
        }
      ],
      "stateMutability": "view",
      "type": "function"
    },
    {
      "inputs": [
        {
          "internalType": "address",
          "name": "owner",
          "type": "address"
        },
        {
          "internalType": "address",
          "name": "operator",
          "type": "address"
        }
      ],
      "name": "isApprovedForAll",
      "outputs": [
        {
          "internalType": "bool",
          "name": "",
          "type": "bool"
        }
      ],
      "stateMutability": "view",
      "type": "function"
    },
    {
      "inputs": [],
      "name": "isSold",
      "outputs": [
        {
          "internalType": "bool",
          "name": "",
          "type": "bool"
        }
      ],
      "stateMutability": "view",
      "type": "function"
    },
    {
      "inputs": [],
      "name": "mintNFT",
      "outputs": [
        {
          "internalType": "uint256",
          "name": "",
          "type": "uint256"
        }
      ],
      "stateMutability": "payable",
      "type": "function"
    },
    {
      "inputs": [],
      "name": "name",
      "outputs": [
        {
          "internalType": "string",
          "name": "",
          "type": "string"
        }
      ],
      "stateMutability": "view",
      "type": "function"
    },
    {
      "inputs": [],
      "name": "owner",
      "outputs": [
        {
          "internalType": "address",
          "name": "",
          "type": "address"
        }
      ],
      "stateMutability": "view",
      "type": "function"
    },
    {
      "inputs": [
        {
          "internalType": "uint256",
          "name": "tokenId",
          "type": "uint256"
        }
      ],
      "name": "ownerOf",
      "outputs": [
        {
          "internalType": "address",
          "name": "",
          "type": "address"
        }
      ],
      "stateMutability": "view",
      "type": "function"
    },
    {
      "inputs": [],
      "name": "price",
      "outputs": [
        {
          "internalType": "uint256",
          "name": "",
          "type": "uint256"
        }
      ],
      "stateMutability": "view",
      "type": "function"
    },
    {
      "inputs": [],
      "name": "renounceOwnership",
      "outputs": [],
      "stateMutability": "nonpayable",
      "type": "function"
    },
    {
      "inputs": [
        {
          "internalType": "address",
          "name": "from",
          "type": "address"
        },
        {
          "internalType": "address",
          "name": "to",
          "type": "address"
        },
        {
          "internalType": "uint256",
          "name": "tokenId",
          "type": "uint256"
        }
      ],
      "name": "safeTransferFrom",
      "outputs": [],
      "stateMutability": "nonpayable",
      "type": "function"
    },
    {
      "inputs": [
        {
          "internalType": "address",
          "name": "from",
          "type": "address"
        },
        {
          "internalType": "address",
          "name": "to",
          "type": "address"
        },
        {
          "internalType": "uint256",
          "name": "tokenId",
          "type": "uint256"
        },
        {
          "internalType": "bytes",
          "name": "data",
          "type": "bytes"
        }
      ],
      "name": "safeTransferFrom",
      "outputs": [],
      "stateMutability": "nonpayable",
      "type": "function"
    },
    {
      "inputs": [
        {
          "internalType": "address",
          "name": "operator",
          "type": "address"
        },
        {
          "internalType": "bool",
          "name": "approved",
          "type": "bool"
        }
      ],
      "name": "setApprovalForAll",
      "outputs": [],
      "stateMutability": "nonpayable",
      "type": "function"
    },
    {
      "inputs": [
        {
          "internalType": "uint256",
          "name": "newPrice",
          "type": "uint256"
        }
      ],
      "name": "setPrice",
      "outputs": [],
      "stateMutability": "nonpayable",
      "type": "function"
    },
    {
      "inputs": [
        {
          "internalType": "bytes4",
          "name": "interfaceId",
          "type": "bytes4"
        }
      ],
      "name": "supportsInterface",
      "outputs": [
        {
          "internalType": "bool",
          "name": "",
          "type": "bool"
        }
      ],
      "stateMutability": "view",
      "type": "function"
    },
    {
      "inputs": [],
      "name": "symbol",
      "outputs": [
        {
          "internalType": "string",
          "name": "",
          "type": "string"
        }
      ],
      "stateMutability": "view",
      "type": "function"
    },
    {
      "inputs": [
        {
          "internalType": "uint256",
          "name": "tokenId",
          "type": "uint256"
        }
      ],
      "name": "tokenURI",
      "outputs": [
        {
          "internalType": "string",
          "name": "",
          "type": "string"
        }
      ],
      "stateMutability": "view",
      "type": "function"
    },
    {
      "inputs": [
        {
          "internalType": "address",
          "name": "from",
          "type": "address"
        },
        {
          "internalType": "address",
          "name": "to",
          "type": "address"
        },
        {
          "internalType": "uint256",
          "name": "tokenId",
          "type": "uint256"
        }
      ],
      "name": "transferFrom",
      "outputs": [],
      "stateMutability": "nonpayable",
      "type": "function"
    },
    {
      "inputs": [
        {
          "internalType": "address",
          "name": "newOwner",
          "type": "address"
        }
      ],
      "name": "transferOwnership",
      "outputs": [],
      "stateMutability": "nonpayable",
      "type": "function"
    }
  ],
  "bytecode": "0x6080604052600060088190556009805460ff19169055600a5534801561002457600080fd5b506040516116ac3803806116ac8339810160408190526100439161015b565b336040518060400160405280600681526020016526b0b6b29a1960d11b815250604051806040016040528060038152602001624d414d60e81b815250816000908161008e91906102b4565b50600161009b82826102b4565b5050506001600160a01b0381166100cc57604051631e4fbdf760e01b81526000600482015260240160405180910390fd5b6100d5816100f3565b506100df81600855565b600b6100eb83826102b4565b505050610372565b600780546001600160a01b038381166001600160a01b0319831681179093556040519116919082907f8be0079c531659141344cd1fd0a4f28419497f9722a3daafe3b4186f6b6457e090600090a35050565b634e487b7160e01b600052604160045260246000fd5b6000806040838503121561016e57600080fd5b82516001600160401b0381111561018457600080fd5b8301601f8101851361019557600080fd5b80516001600160401b038111156101ae576101ae610145565b604051601f8201601f19908116603f011681016001600160401b03811182821017156101dc576101dc610145565b6040528181528282016020018710156101f457600080fd5b60005b82811015610213576020818501810151838301820152016101f7565b50600060209282018301529401519395939450505050565b600181811c9082168061023f57607f821691505b60208210810361025f57634e487b7160e01b600052602260045260246000fd5b50919050565b601f8211156102af57806000526020600020601f840160051c8101602085101561028c5750805b601f840160051c820191505b818110156102ac5760008155600101610298565b50505b505050565b81516001600160401b038111156102cd576102cd610145565b6102e1816102db845461022b565b84610265565b6020601f82116001811461031557600083156102fd5750848201515b600019600385901b1c1916600184901b1784556102ac565b600084815260208120601f198516915b828110156103455787850151825560209485019460019092019101610325565b50848210156103635786840151600019600387901b60f8161c191681555b50505050600190811b01905550565b61132b806103816000396000f3fe60806040526004361061011f5760003560e01c80638da5cb5b116100a0578063b88d4fde11610064578063b88d4fde14610309578063c87b56dd14610329578063e852e74114610349578063e985e9c514610361578063f2fde38b1461038157600080fd5b80638da5cb5b1461028057806391b7f5ed1461029e57806395d89b41146102be578063a035b1fe146102d3578063a22cb465146102e957600080fd5b806323b872dd116100e757806323b872dd146101eb57806342842e0e1461020b5780636352211e1461022b57806370a082311461024b578063715018a61461026b57600080fd5b806301ffc9a71461012457806306fdde0314610159578063081812fc1461017b578063095ea7b3146101b357806314f710fe146101d5575b600080fd5b34801561013057600080fd5b5061014461013f366004610f82565b6103a1565b60405190151581526020015b60405180910390f35b34801561016557600080fd5b5061016e6103cc565b6040516101509190610fef565b34801561018757600080fd5b5061019b610196366004611002565b61045e565b6040516001600160a01b039091168152602001610150565b3480156101bf57600080fd5b506101d36101ce366004611037565b610487565b005b6101dd610496565b604051908152602001610150565b3480156101f757600080fd5b506101d3610206366004611061565b61058a565b34801561021757600080fd5b506101d3610226366004611061565b610615565b34801561023757600080fd5b5061019b610246366004611002565b610635565b34801561025757600080fd5b506101dd61026636600461109e565b610640565b34801561027757600080fd5b506101d3610688565b34801561028c57600080fd5b506007546001600160a01b031661019b565b3480156102aa57600080fd5b506101d36102b9366004611002565b61069c565b3480156102ca57600080fd5b5061016e6106e9565b3480156102df57600080fd5b506101dd60085481565b3480156102f557600080fd5b506101d36103043660046110b9565b6106f8565b34801561031557600080fd5b506101d361032436600461110b565b610703565b34801561033557600080fd5b5061016e610344366004611002565b61071b565b34801561035557600080fd5b5060095460ff16610144565b34801561036d57600080fd5b5061014461037c3660046111ef565b610779565b34801561038d57600080fd5b506101d361039c36600461109e565b6107a7565b60006001600160e01b03198216632483248360e11b14806103c657506103c6826107e5565b92915050565b6060600080546103db90611222565b80601f016020809104026020016040519081016040528092919081815260200182805461040790611222565b80156104545780601f1061042957610100808354040283529160200191610454565b820191906000526020600020905b81548152906001019060200180831161043757829003601f168201915b5050505050905090565b600061046982610835565b506000828152600460205260409020546001600160a01b03166103c6565b61049282823361086e565b5050565b60095460009060ff16156104e65760405162461bcd60e51b815260206004820152601260248201527113919508185b1c9958591e481b5a5b9d195960721b60448201526064015b60405180910390fd5b60085434101561052f5760405162461bcd60e51b8152602060048201526014602482015273125b9cdd59999a58da595b9d081c185e5b595b9d60621b60448201526064016104dd565b61053a33600161087b565b6009805460ff191660011790556008546040805133815260208101929092527ff2b290a76feb54be358b555507421d765609171aefa0646f109a653228ff81b8910160405180910390a150600190565b6001600160a01b0382166105b457604051633250574960e11b8152600060048201526024016104dd565b60006105c18383336108e0565b9050836001600160a01b0316816001600160a01b03161461060f576040516364283d7b60e01b81526001600160a01b03808616600483015260248201849052821660448201526064016104dd565b50505050565b61063083838360405180602001604052806000815250610703565b505050565b60006103c682610835565b60006001600160a01b03821661066c576040516322718ad960e21b8152600060048201526024016104dd565b506001600160a01b031660009081526003602052604090205490565b6106906109d9565b61069a6000610a06565b565b6106a46109d9565b6106ad81600855565b60408051338152602081018390527ff9a09e2869a1f88523f00504328d7965866201bafe501573db2e114e3375a086910160405180910390a150565b6060600180546103db90611222565b610492338383610a58565b61070e84848461058a565b61060f3385858585610af7565b60606000610727610c22565b905060008151116107475760405180602001604052806000815250610772565b8061075184610c31565b60405160200161076292919061125c565b6040516020818303038152906040525b9392505050565b6001600160a01b03918216600090815260056020908152604080832093909416825291909152205460ff1690565b6107af6109d9565b6001600160a01b0381166107d957604051631e4fbdf760e01b8152600060048201526024016104dd565b6107e281610a06565b50565b60006001600160e01b031982166380ac58cd60e01b148061081657506001600160e01b03198216635b5e139f60e01b145b806103c657506301ffc9a760e01b6001600160e01b03198316146103c6565b6000818152600260205260408120546001600160a01b0316806103c657604051637e27328960e01b8152600481018490526024016104dd565b6106308383836001610cc4565b6001600160a01b0382166108a557604051633250574960e11b8152600060048201526024016104dd565b60006108b3838360006108e0565b90506001600160a01b03811615610630576040516339e3563760e11b8152600060048201526024016104dd565b6000828152600260205260408120546001600160a01b039081169083161561090d5761090d818486610dca565b6001600160a01b0381161561094b5761092a600085600080610cc4565b6001600160a01b038116600090815260036020526040902080546000190190555b6001600160a01b0385161561097a576001600160a01b0385166000908152600360205260409020805460010190555b60008481526002602052604080822080546001600160a01b0319166001600160a01b0389811691821790925591518793918516917fddf252ad1be2c89b69c2b068fc378daa952ba7f163c4a11628f55a4df523b3ef91a4949350505050565b6007546001600160a01b0316331461069a5760405163118cdaa760e01b81523360048201526024016104dd565b600780546001600160a01b038381166001600160a01b0319831681179093556040519116919082907f8be0079c531659141344cd1fd0a4f28419497f9722a3daafe3b4186f6b6457e090600090a35050565b6001600160a01b038216610a8a57604051630b61174360e31b81526001600160a01b03831660048201526024016104dd565b6001600160a01b03838116600081815260056020908152604080832094871680845294825291829020805460ff191686151590811790915591519182527f17307eab39ab6107e8899845ad3d59bd9653f200f220920489ca2b5937696c31910160405180910390a3505050565b6001600160a01b0383163b15610c1b57604051630a85bd0160e11b81526001600160a01b0384169063150b7a0290610b3990889088908790879060040161129b565b6020604051808303816000875af1925050508015610b74575060408051601f3d908101601f19168201909252610b71918101906112d8565b60015b610bdd573d808015610ba2576040519150601f19603f3d011682016040523d82523d6000602084013e610ba7565b606091505b508051600003610bd557604051633250574960e11b81526001600160a01b03851660048201526024016104dd565b805181602001fd5b6001600160e01b03198116630a85bd0160e11b14610c1957604051633250574960e11b81526001600160a01b03851660048201526024016104dd565b505b5050505050565b6060600b80546103db90611222565b60606000610c3e83610e2e565b600101905060008167ffffffffffffffff811115610c5e57610c5e6110f5565b6040519080825280601f01601f191660200182016040528015610c88576020820181803683370190505b5090508181016020015b600019016f181899199a1a9b1b9c1cb0b131b232b360811b600a86061a8153600a8504945084610c9257509392505050565b8080610cd857506001600160a01b03821615155b15610d9a576000610ce884610835565b90506001600160a01b03831615801590610d145750826001600160a01b0316816001600160a01b031614155b8015610d275750610d258184610779565b155b15610d505760405163a9fbf51f60e01b81526001600160a01b03841660048201526024016104dd565b8115610d985783856001600160a01b0316826001600160a01b03167f8c5be1e5ebec7d5bd14f71427d1e84f3dd0314c0f7b2291e5b200ac8c7c3b92560405160405180910390a45b505b5050600090815260046020526040902080546001600160a01b0319166001600160a01b0392909216919091179055565b610dd5838383610f06565b610630576001600160a01b038316610e0357604051637e27328960e01b8152600481018290526024016104dd565b60405163177e802f60e01b81526001600160a01b0383166004820152602481018290526044016104dd565b60008072184f03e93ff9f4daa797ed6e38ed64bf6a1f0160401b8310610e6d5772184f03e93ff9f4daa797ed6e38ed64bf6a1f0160401b830492506040015b6d04ee2d6d415b85acef81000000008310610e99576d04ee2d6d415b85acef8100000000830492506020015b662386f26fc100008310610eb757662386f26fc10000830492506010015b6305f5e1008310610ecf576305f5e100830492506008015b6127108310610ee357612710830492506004015b60648310610ef5576064830492506002015b600a83106103c65760010192915050565b60006001600160a01b03831615801590610f645750826001600160a01b0316846001600160a01b03161480610f405750610f408484610779565b80610f6457506000828152600460205260409020546001600160a01b038481169116145b949350505050565b6001600160e01b0319811681146107e257600080fd5b600060208284031215610f9457600080fd5b813561077281610f6c565b60005b83811015610fba578181015183820152602001610fa2565b50506000910152565b60008151808452610fdb816020860160208601610f9f565b601f01601f19169290920160200192915050565b6020815260006107726020830184610fc3565b60006020828403121561101457600080fd5b5035919050565b80356001600160a01b038116811461103257600080fd5b919050565b6000806040838503121561104a57600080fd5b6110538361101b565b946020939093013593505050565b60008060006060848603121561107657600080fd5b61107f8461101b565b925061108d6020850161101b565b929592945050506040919091013590565b6000602082840312156110b057600080fd5b6107728261101b565b600080604083850312156110cc57600080fd5b6110d58361101b565b9150602083013580151581146110ea57600080fd5b809150509250929050565b634e487b7160e01b600052604160045260246000fd5b6000806000806080858703121561112157600080fd5b61112a8561101b565b93506111386020860161101b565b925060408501359150606085013567ffffffffffffffff81111561115b57600080fd5b8501601f8101871361116c57600080fd5b803567ffffffffffffffff811115611186576111866110f5565b604051601f8201601f19908116603f0116810167ffffffffffffffff811182821017156111b5576111b56110f5565b6040528181528282016020018910156111cd57600080fd5b8160208401602083013760006020838301015280935050505092959194509250565b6000806040838503121561120257600080fd5b61120b8361101b565b91506112196020840161101b565b90509250929050565b600181811c9082168061123657607f821691505b60208210810361125657634e487b7160e01b600052602260045260246000fd5b50919050565b6000835161126e818460208801610f9f565b835190830190611282818360208801610f9f565b64173539b7b760d91b9101908152600501949350505050565b6001600160a01b03858116825284166020820152604081018390526080606082018190526000906112ce90830184610fc3565b9695505050505050565b6000602082840312156112ea57600080fd5b815161077281610f6c56fea2646970667358221220ebb49f15da3f237dfdfdaf861af14875598a7e5e6504453a22351e0efd811b5764736f6c634300081c0033",
  "linkReferences": {},
  "deployedLinkReferences": {}
}