{
  "_format": "hh-sol-artifact-1",
  "contractName": "Mame42",
  "sourceName": "code/Mame42.sol",
  "abi": [
    {
      "inputs": [
        {
          "internalType": "string",
          "name": "json",
          "type": "string"
        },
        {
          "internalType": "uint256",
          "name": "newPrice",
          "type": "uint256"
        }
      ],
      "stateMutability": "nonpayable",
      "type": "constructor"
    },
    {
      "inputs": [
        {
          "internalType": "address",
          "name": "sender",
          "type": "address"
        },
        {
          "internalType": "uint256",
          "name": "tokenId",
          "type": "uint256"
        },
        {
          "internalType": "address",
          "name": "owner",
          "type": "address"
        }
      ],
      "name": "ERC721IncorrectOwner",
      "type": "error"
    },
    {
      "inputs": [
        {
          "internalType": "address",
          "name": "operator",
          "type": "address"
        },
        {
          "internalType": "uint256",
          "name": "tokenId",
          "type": "uint256"
        }
      ],
      "name": "ERC721InsufficientApproval",
      "type": "error"
    },
    {
      "inputs": [
        {
          "internalType": "address",
          "name": "approver",
          "type": "address"
        }
      ],
      "name": "ERC721InvalidApprover",
      "type": "error"
    },
    {
      "inputs": [
        {
          "internalType": "address",
          "name": "operator",
          "type": "address"
        }
      ],
      "name": "ERC721InvalidOperator",
      "type": "error"
    },
    {
      "inputs": [
        {
          "internalType": "address",
          "name": "owner",
          "type": "address"
        }
      ],
      "name": "ERC721InvalidOwner",
      "type": "error"
    },
    {
      "inputs": [
        {
          "internalType": "address",
          "name": "receiver",
          "type": "address"
        }
      ],
      "name": "ERC721InvalidReceiver",
      "type": "error"
    },
    {
      "inputs": [
        {
          "internalType": "address",
          "name": "sender",
          "type": "address"
        }
      ],
      "name": "ERC721InvalidSender",
      "type": "error"
    },
    {
      "inputs": [
        {
          "internalType": "uint256",
          "name": "tokenId",
          "type": "uint256"
        }
      ],
      "name": "ERC721NonexistentToken",
      "type": "error"
    },
    {
      "inputs": [
        {
          "internalType": "address",
          "name": "owner",
          "type": "address"
        }
      ],
      "name": "OwnableInvalidOwner",
      "type": "error"
    },
    {
      "inputs": [
        {
          "internalType": "address",
          "name": "account",
          "type": "address"
        }
      ],
      "name": "OwnableUnauthorizedAccount",
      "type": "error"
    },
    {
      "anonymous": false,
      "inputs": [
        {
          "indexed": true,
          "internalType": "address",
          "name": "owner",
          "type": "address"
        },
        {
          "indexed": true,
          "internalType": "address",
          "name": "approved",
          "type": "address"
        },
        {
          "indexed": true,
          "internalType": "uint256",
          "name": "tokenId",
          "type": "uint256"
        }
      ],
      "name": "Approval",
      "type": "event"
    },
    {
      "anonymous": false,
      "inputs": [
        {
          "indexed": true,
          "internalType": "address",
          "name": "owner",
          "type": "address"
        },
        {
          "indexed": true,
          "internalType": "address",
          "name": "operator",
          "type": "address"
        },
        {
          "indexed": false,
          "internalType": "bool",
          "name": "approved",
          "type": "bool"
        }
      ],
      "name": "ApprovalForAll",
      "type": "event"
    },
    {
      "anonymous": false,
      "inputs": [
        {
          "indexed": false,
          "internalType": "uint256",
          "name": "_fromTokenId",
          "type": "uint256"
        },
        {
          "indexed": false,
          "internalType": "uint256",
          "name": "_toTokenId",
          "type": "uint256"
        }
      ],
      "name": "BatchMetadataUpdate",
      "type": "event"
    },
    {
      "anonymous": false,
      "inputs": [
        {
          "indexed": false,
          "internalType": "uint256",
          "name": "_tokenId",
          "type": "uint256"
        }
      ],
      "name": "MetadataUpdate",
      "type": "event"
    },
    {
      "anonymous": false,
      "inputs": [
        {
          "indexed": false,
          "internalType": "address",
          "name": "newOwner",
          "type": "address"
        },
        {
          "indexed": false,
          "internalType": "uint256",
          "name": "sellPrice",
          "type": "uint256"
        }
      ],
      "name": "NftMinted",
      "type": "event"
    },
    {
      "anonymous": false,
      "inputs": [
        {
          "indexed": true,
          "internalType": "address",
          "name": "previousOwner",
          "type": "address"
        },
        {
          "indexed": true,
          "internalType": "address",
          "name": "newOwner",
          "type": "address"
        }
      ],
      "name": "OwnershipTransferred",
      "type": "event"
    },
    {
      "anonymous": false,
      "inputs": [
        {
          "indexed": false,
          "internalType": "address",
          "name": "author",
          "type": "address"
        },
        {
          "indexed": false,
          "internalType": "uint256",
          "name": "newPrice",
          "type": "uint256"
        }
      ],
      "name": "PriceSet",
      "type": "event"
    },
    {
      "anonymous": false,
      "inputs": [
        {
          "indexed": true,
          "internalType": "address",
          "name": "from",
          "type": "address"
        },
        {
          "indexed": true,
          "internalType": "address",
          "name": "to",
          "type": "address"
        },
        {
          "indexed": true,
          "internalType": "uint256",
          "name": "tokenId",
          "type": "uint256"
        }
      ],
      "name": "Transfer",
      "type": "event"
    },
    {
      "inputs": [
        {
          "internalType": "address",
          "name": "to",
          "type": "address"
        },
        {
          "internalType": "uint256",
          "name": "tokenId",
          "type": "uint256"
        }
      ],
      "name": "approve",
      "outputs": [],
      "stateMutability": "nonpayable",
      "type": "function"
    },
    {
      "inputs": [
        {
          "internalType": "address",
          "name": "owner",
          "type": "address"
        }
      ],
      "name": "balanceOf",
      "outputs": [
        {
          "internalType": "uint256",
          "name": "",
          "type": "uint256"
        }
      ],
      "stateMutability": "view",
      "type": "function"
    },
    {
      "inputs": [
        {
          "internalType": "uint256",
          "name": "tokenId",
          "type": "uint256"
        }
      ],
      "name": "getApproved",
      "outputs": [
        {
          "internalType": "address",
          "name": "",
          "type": "address"
        }
      ],
      "stateMutability": "view",
      "type": "function"
    },
    {
      "inputs": [
        {
          "internalType": "address",
          "name": "owner",
          "type": "address"
        },
        {
          "internalType": "address",
          "name": "operator",
          "type": "address"
        }
      ],
      "name": "isApprovedForAll",
      "outputs": [
        {
          "internalType": "bool",
          "name": "",
          "type": "bool"
        }
      ],
      "stateMutability": "view",
      "type": "function"
    },
    {
      "inputs": [],
      "name": "isSold",
      "outputs": [
        {
          "internalType": "bool",
          "name": "",
          "type": "bool"
        }
      ],
      "stateMutability": "view",
      "type": "function"
    },
    {
      "inputs": [],
      "name": "mintNFT",
      "outputs": [
        {
          "internalType": "uint256",
          "name": "",
          "type": "uint256"
        }
      ],
      "stateMutability": "payable",
      "type": "function"
    },
    {
      "inputs": [],
      "name": "name",
      "outputs": [
        {
          "internalType": "string",
          "name": "",
          "type": "string"
        }
      ],
      "stateMutability": "view",
      "type": "function"
    },
    {
      "inputs": [],
      "name": "owner",
      "outputs": [
        {
          "internalType": "address",
          "name": "",
          "type": "address"
        }
      ],
      "stateMutability": "view",
      "type": "function"
    },
    {
      "inputs": [
        {
          "internalType": "uint256",
          "name": "tokenId",
          "type": "uint256"
        }
      ],
      "name": "ownerOf",
      "outputs": [
        {
          "internalType": "address",
          "name": "",
          "type": "address"
        }
      ],
      "stateMutability": "view",
      "type": "function"
    },
    {
      "inputs": [],
      "name": "price",
      "outputs": [
        {
          "internalType": "uint256",
          "name": "",
          "type": "uint256"
        }
      ],
      "stateMutability": "view",
      "type": "function"
    },
    {
      "inputs": [],
      "name": "renounceOwnership",
      "outputs": [],
      "stateMutability": "nonpayable",
      "type": "function"
    },
    {
      "inputs": [
        {
          "internalType": "address",
          "name": "from",
          "type": "address"
        },
        {
          "internalType": "address",
          "name": "to",
          "type": "address"
        },
        {
          "internalType": "uint256",
          "name": "tokenId",
          "type": "uint256"
        }
      ],
      "name": "safeTransferFrom",
      "outputs": [],
      "stateMutability": "nonpayable",
      "type": "function"
    },
    {
      "inputs": [
        {
          "internalType": "address",
          "name": "from",
          "type": "address"
        },
        {
          "internalType": "address",
          "name": "to",
          "type": "address"
        },
        {
          "internalType": "uint256",
          "name": "tokenId",
          "type": "uint256"
        },
        {
          "internalType": "bytes",
          "name": "data",
          "type": "bytes"
        }
      ],
      "name": "safeTransferFrom",
      "outputs": [],
      "stateMutability": "nonpayable",
      "type": "function"
    },
    {
      "inputs": [
        {
          "internalType": "address",
          "name": "operator",
          "type": "address"
        },
        {
          "internalType": "bool",
          "name": "approved",
          "type": "bool"
        }
      ],
      "name": "setApprovalForAll",
      "outputs": [],
      "stateMutability": "nonpayable",
      "type": "function"
    },
    {
      "inputs": [
        {
          "internalType": "uint256",
          "name": "newPrice",
          "type": "uint256"
        }
      ],
      "name": "setPrice",
      "outputs": [],
      "stateMutability": "nonpayable",
      "type": "function"
    },
    {
      "inputs": [
        {
          "internalType": "bytes4",
          "name": "interfaceId",
          "type": "bytes4"
        }
      ],
      "name": "supportsInterface",
      "outputs": [
        {
          "internalType": "bool",
          "name": "",
          "type": "bool"
        }
      ],
      "stateMutability": "view",
      "type": "function"
    },
    {
      "inputs": [],
      "name": "symbol",
      "outputs": [
        {
          "internalType": "string",
          "name": "",
          "type": "string"
        }
      ],
      "stateMutability": "view",
      "type": "function"
    },
    {
      "inputs": [],
      "name": "tokenMetadata",
      "outputs": [
        {
          "internalType": "string",
          "name": "",
          "type": "string"
        }
      ],
      "stateMutability": "view",
      "type": "function"
    },
    {
      "inputs": [
        {
          "internalType": "uint256",
          "name": "tokenId",
          "type": "uint256"
        }
      ],
      "name": "tokenURI",
      "outputs": [
        {
          "internalType": "string",
          "name": "",
          "type": "string"
        }
      ],
      "stateMutability": "view",
      "type": "function"
    },
    {
      "inputs": [
        {
          "internalType": "address",
          "name": "from",
          "type": "address"
        },
        {
          "internalType": "address",
          "name": "to",
          "type": "address"
        },
        {
          "internalType": "uint256",
          "name": "tokenId",
          "type": "uint256"
        }
      ],
      "name": "transferFrom",
      "outputs": [],
      "stateMutability": "nonpayable",
      "type": "function"
    },
    {
      "inputs": [
        {
          "internalType": "address",
          "name": "newOwner",
          "type": "address"
        }
      ],
      "name": "transferOwnership",
      "outputs": [],
      "stateMutability": "nonpayable",
      "type": "function"
    }
  ],
  "bytecode": "0x600060088190556009805460ff1916905560a06040526080908152600a9061002790826103b4565b506000600b5534801561003957600080fd5b50604051611d07380380611d0783398101604081905261005891610472565b336040518060400160405280600681526020016526b0b6b29a1960d11b815250604051806040016040528060038152602001624d414d60e81b81525081600090816100a391906103b4565b5060016100b082826103b4565b5050506001600160a01b0381166100e157604051631e4fbdf760e01b81526000600482015260240160405180910390fd5b6100ea81610116565b5060006100f683610168565b9050600a61010482826103b4565b5061010e82600855565b5050506105a4565b600780546001600160a01b038381166001600160a01b0319831681179093556040519116919082907f8be0079c531659141344cd1fd0a4f28419497f9722a3daafe3b4186f6b6457e090600090a35050565b606061018e82604051806060016040528060408152602001611cc7604091396001610194565b92915050565b606083516000036101b4575060408051602081019091526000815261030e565b6000826101e5576003855160046101cb9190610558565b6101d690600261056f565b6101e09190610582565b61020a565b6003855160026101f5919061056f565b6101ff9190610582565b61020a906004610558565b90506000816001600160401b0381111561022657610226610315565b6040519080825280601f01601f191660200182016040528015610250576020820181803683370190505b50905060018501602082018788518901602081018051600082525b828410156102c6576003840193508351603f8160121c168701518653600186019550603f81600c1c168701518653600186019550603f8160061c168701518653600186019550603f811687015186535060018501945061026b565b905250508515610307576003885106600181146102ea57600281146102fd57610305565b603d6001830353603d6002830353610305565b603d60018303535b505b5090925050505b9392505050565b634e487b7160e01b600052604160045260246000fd5b600181811c9082168061033f57607f821691505b60208210810361035f57634e487b7160e01b600052602260045260246000fd5b50919050565b601f8211156103af57806000526020600020601f840160051c8101602085101561038c5750805b601f840160051c820191505b818110156103ac5760008155600101610398565b50505b505050565b81516001600160401b038111156103cd576103cd610315565b6103e1816103db845461032b565b84610365565b6020601f82116001811461041557600083156103fd5750848201515b600019600385901b1c1916600184901b1784556103ac565b600084815260208120601f198516915b828110156104455787850151825560209485019460019092019101610425565b50848210156104635786840151600019600387901b60f8161c191681555b50505050600190811b01905550565b6000806040838503121561048557600080fd5b82516001600160401b0381111561049b57600080fd5b8301601f810185136104ac57600080fd5b80516001600160401b038111156104c5576104c5610315565b604051601f8201601f19908116603f011681016001600160401b03811182821017156104f3576104f3610315565b60405281815282820160200187101561050b57600080fd5b60005b8281101561052a5760208185018101518383018201520161050e565b50600060209282018301529401519395939450505050565b634e487b7160e01b600052601160045260246000fd5b808202811582820484141761018e5761018e610542565b8082018082111561018e5761018e610542565b60008261059f57634e487b7160e01b600052601260045260246000fd5b500490565b611714806105b36000396000f3fe60806040526004361061012a5760003560e01c80638da5cb5b116100ab578063b88d4fde1161006f578063b88d4fde14610314578063c87b56dd14610334578063e852e74114610354578063e985e9c51461036c578063f2fde38b1461038c578063f5b2cad7146103ac57600080fd5b80638da5cb5b1461028b57806391b7f5ed146102a957806395d89b41146102c9578063a035b1fe146102de578063a22cb465146102f457600080fd5b806323b872dd116100f257806323b872dd146101f657806342842e0e146102165780636352211e1461023657806370a0823114610256578063715018a61461027657600080fd5b806301ffc9a71461012f57806306fdde0314610164578063081812fc14610186578063095ea7b3146101be57806314f710fe146101e0575b600080fd5b34801561013b57600080fd5b5061014f61014a366004611275565b6103c1565b60405190151581526020015b60405180910390f35b34801561017057600080fd5b506101796103ec565b60405161015b91906112e2565b34801561019257600080fd5b506101a66101a13660046112f5565b61047e565b6040516001600160a01b03909116815260200161015b565b3480156101ca57600080fd5b506101de6101d936600461132a565b6104a7565b005b6101e86104b6565b60405190815260200161015b565b34801561020257600080fd5b506101de610211366004611354565b61063f565b34801561022257600080fd5b506101de610231366004611354565b6106ca565b34801561024257600080fd5b506101a66102513660046112f5565b6106ea565b34801561026257600080fd5b506101e8610271366004611391565b6106f5565b34801561028257600080fd5b506101de61073d565b34801561029757600080fd5b506007546001600160a01b03166101a6565b3480156102b557600080fd5b506101de6102c43660046112f5565b610751565b3480156102d557600080fd5b5061017961079e565b3480156102ea57600080fd5b506101e860085481565b34801561030057600080fd5b506101de61030f3660046113ac565b6107ad565b34801561032057600080fd5b506101de61032f3660046113fe565b6107b8565b34801561034057600080fd5b5061017961034f3660046112f5565b6107d0565b34801561036057600080fd5b5060095460ff1661014f565b34801561037857600080fd5b5061014f6103873660046114e2565b610906565b34801561039857600080fd5b506101de6103a7366004611391565b610934565b3480156103b857600080fd5b50610179610972565b60006001600160e01b03198216632483248360e11b14806103e657506103e682610a00565b92915050565b6060600080546103fb90611515565b80601f016020809104026020016040519081016040528092919081815260200182805461042790611515565b80156104745780601f1061044957610100808354040283529160200191610474565b820191906000526020600020905b81548152906001019060200180831161045757829003601f168201915b5050505050905090565b600061048982610a50565b506000828152600460205260409020546001600160a01b03166103e6565b6104b2828233610a89565b5050565b60095460009060ff16156105065760405162461bcd60e51b815260206004820152601260248201527113919508185b1c9958591e481b5a5b9d195960721b60448201526064015b60405180910390fd5b60085434101561054f5760405162461bcd60e51b8152602060048201526014602482015273125b9cdd59999a58da595b9d081c185e5b595b9d60621b60448201526064016104fd565b61055a336001610a96565b6105ef6001600a805461056c90611515565b80601f016020809104026020016040519081016040528092919081815260200182805461059890611515565b80156105e55780601f106105ba576101008083540402835291602001916105e5565b820191906000526020600020905b8154815290600101906020018083116105c857829003601f168201915b5050505050610afb565b6009805460ff191660011790556008546040805133815260208101929092527ff2b290a76feb54be358b555507421d765609171aefa0646f109a653228ff81b8910160405180910390a150600190565b6001600160a01b03821661066957604051633250574960e11b8152600060048201526024016104fd565b6000610676838333610b4b565b9050836001600160a01b0316816001600160a01b0316146106c4576040516364283d7b60e01b81526001600160a01b03808616600483015260248201849052821660448201526064016104fd565b50505050565b6106e5838383604051806020016040528060008152506107b8565b505050565b60006103e682610a50565b60006001600160a01b038216610721576040516322718ad960e21b8152600060048201526024016104fd565b506001600160a01b031660009081526003602052604090205490565b610745610c44565b61074f6000610c71565b565b610759610c44565b61076281600855565b60408051338152602081018390527ff9a09e2869a1f88523f00504328d7965866201bafe501573db2e114e3375a086910160405180910390a150565b6060600180546103fb90611515565b6104b2338383610cc3565b6107c384848461063f565b6106c43385858585610d62565b60606107db82610a50565b50600082815260066020526040812080546107f590611515565b80601f016020809104026020016040519081016040528092919081815260200182805461082190611515565b801561086e5780601f106108435761010080835404028352916020019161086e565b820191906000526020600020905b81548152906001019060200180831161085157829003601f168201915b5050505050905060006108b160408051808201909152601d81527f646174613a6170706c69636174696f6e2f6a736f6e3b6261736536342c000000602082015290565b905080516000036108c3575092915050565b8151156108f55780826040516020016108dd92919061154f565b60405160208183030381529060405292505050919050565b6108fe84610e8d565b949350505050565b6001600160a01b03918216600090815260056020908152604080832093909416825291909152205460ff1690565b61093c610c44565b6001600160a01b03811661096657604051631e4fbdf760e01b8152600060048201526024016104fd565b61096f81610c71565b50565b600a805461097f90611515565b80601f01602080910402602001604051908101604052809291908181526020018280546109ab90611515565b80156109f85780601f106109cd576101008083540402835291602001916109f8565b820191906000526020600020905b8154815290600101906020018083116109db57829003601f168201915b505050505081565b60006001600160e01b031982166380ac58cd60e01b1480610a3157506001600160e01b03198216635b5e139f60e01b145b806103e657506301ffc9a760e01b6001600160e01b03198316146103e6565b6000818152600260205260408120546001600160a01b0316806103e657604051637e27328960e01b8152600481018490526024016104fd565b6106e58383836001610f27565b6001600160a01b038216610ac057604051633250574960e11b8152600060048201526024016104fd565b6000610ace83836000610b4b565b90506001600160a01b038116156106e5576040516339e3563760e11b8152600060048201526024016104fd565b6000828152600660205260409020610b1382826115c5565b506040518281527ff8e1a15aba9398e019f0b49df1a4fde98ee17ae345cb5f6b5e2c27f5033e8ce79060200160405180910390a15050565b6000828152600260205260408120546001600160a01b0390811690831615610b7857610b7881848661102d565b6001600160a01b03811615610bb657610b95600085600080610f27565b6001600160a01b038116600090815260036020526040902080546000190190555b6001600160a01b03851615610be5576001600160a01b0385166000908152600360205260409020805460010190555b60008481526002602052604080822080546001600160a01b0319166001600160a01b0389811691821790925591518793918516917fddf252ad1be2c89b69c2b068fc378daa952ba7f163c4a11628f55a4df523b3ef91a4949350505050565b6007546001600160a01b0316331461074f5760405163118cdaa760e01b81523360048201526024016104fd565b600780546001600160a01b038381166001600160a01b0319831681179093556040519116919082907f8be0079c531659141344cd1fd0a4f28419497f9722a3daafe3b4186f6b6457e090600090a35050565b6001600160a01b038216610cf557604051630b61174360e31b81526001600160a01b03831660048201526024016104fd565b6001600160a01b03838116600081815260056020908152604080832094871680845294825291829020805460ff191686151590811790915591519182527f17307eab39ab6107e8899845ad3d59bd9653f200f220920489ca2b5937696c31910160405180910390a3505050565b6001600160a01b0383163b15610e8657604051630a85bd0160e11b81526001600160a01b0384169063150b7a0290610da4908890889087908790600401611684565b6020604051808303816000875af1925050508015610ddf575060408051601f3d908101601f19168201909252610ddc918101906116c1565b60015b610e48573d808015610e0d576040519150601f19603f3d011682016040523d82523d6000602084013e610e12565b606091505b508051600003610e4057604051633250574960e11b81526001600160a01b03851660048201526024016104fd565b805181602001fd5b6001600160e01b03198116630a85bd0160e11b14610e8457604051633250574960e11b81526001600160a01b03851660048201526024016104fd565b505b5050505050565b6060610e9882610a50565b506000610ed560408051808201909152601d81527f646174613a6170706c69636174696f6e2f6a736f6e3b6261736536342c000000602082015290565b90506000815111610ef55760405180602001604052806000815250610f20565b80610eff84611091565b604051602001610f1092919061154f565b6040516020818303038152906040525b9392505050565b8080610f3b57506001600160a01b03821615155b15610ffd576000610f4b84610a50565b90506001600160a01b03831615801590610f775750826001600160a01b0316816001600160a01b031614155b8015610f8a5750610f888184610906565b155b15610fb35760405163a9fbf51f60e01b81526001600160a01b03841660048201526024016104fd565b8115610ffb5783856001600160a01b0316826001600160a01b03167f8c5be1e5ebec7d5bd14f71427d1e84f3dd0314c0f7b2291e5b200ac8c7c3b92560405160405180910390a45b505b5050600090815260046020526040902080546001600160a01b0319166001600160a01b0392909216919091179055565b611038838383611124565b6106e5576001600160a01b03831661106657604051637e27328960e01b8152600481018290526024016104fd565b60405163177e802f60e01b81526001600160a01b0383166004820152602481018290526044016104fd565b6060600061109e83611187565b600101905060008167ffffffffffffffff8111156110be576110be6113e8565b6040519080825280601f01601f1916602001820160405280156110e8576020820181803683370190505b5090508181016020015b600019016f181899199a1a9b1b9c1cb0b131b232b360811b600a86061a8153600a85049450846110f257509392505050565b60006001600160a01b038316158015906108fe5750826001600160a01b0316846001600160a01b0316148061115e575061115e8484610906565b806108fe5750506000908152600460205260409020546001600160a01b03908116911614919050565b60008072184f03e93ff9f4daa797ed6e38ed64bf6a1f0160401b83106111c65772184f03e93ff9f4daa797ed6e38ed64bf6a1f0160401b830492506040015b6d04ee2d6d415b85acef810000000083106111f2576d04ee2d6d415b85acef8100000000830492506020015b662386f26fc10000831061121057662386f26fc10000830492506010015b6305f5e1008310611228576305f5e100830492506008015b612710831061123c57612710830492506004015b6064831061124e576064830492506002015b600a83106103e65760010192915050565b6001600160e01b03198116811461096f57600080fd5b60006020828403121561128757600080fd5b8135610f208161125f565b60005b838110156112ad578181015183820152602001611295565b50506000910152565b600081518084526112ce816020860160208601611292565b601f01601f19169290920160200192915050565b602081526000610f2060208301846112b6565b60006020828403121561130757600080fd5b5035919050565b80356001600160a01b038116811461132557600080fd5b919050565b6000806040838503121561133d57600080fd5b6113468361130e565b946020939093013593505050565b60008060006060848603121561136957600080fd5b6113728461130e565b92506113806020850161130e565b929592945050506040919091013590565b6000602082840312156113a357600080fd5b610f208261130e565b600080604083850312156113bf57600080fd5b6113c88361130e565b9150602083013580151581146113dd57600080fd5b809150509250929050565b634e487b7160e01b600052604160045260246000fd5b6000806000806080858703121561141457600080fd5b61141d8561130e565b935061142b6020860161130e565b925060408501359150606085013567ffffffffffffffff81111561144e57600080fd5b8501601f8101871361145f57600080fd5b803567ffffffffffffffff811115611479576114796113e8565b604051601f8201601f19908116603f0116810167ffffffffffffffff811182821017156114a8576114a86113e8565b6040528181528282016020018910156114c057600080fd5b8160208401602083013760006020838301015280935050505092959194509250565b600080604083850312156114f557600080fd5b6114fe8361130e565b915061150c6020840161130e565b90509250929050565b600181811c9082168061152957607f821691505b60208210810361154957634e487b7160e01b600052602260045260246000fd5b50919050565b60008351611561818460208801611292565b835190830190611575818360208801611292565b01949350505050565b601f8211156106e557806000526020600020601f840160051c810160208510156115a55750805b601f840160051c820191505b81811015610e8657600081556001016115b1565b815167ffffffffffffffff8111156115df576115df6113e8565b6115f3816115ed8454611515565b8461157e565b6020601f821160018114611627576000831561160f5750848201515b600019600385901b1c1916600184901b178455610e86565b600084815260208120601f198516915b828110156116575787850151825560209485019460019092019101611637565b50848210156116755786840151600019600387901b60f8161c191681555b50505050600190811b01905550565b6001600160a01b03858116825284166020820152604081018390526080606082018190526000906116b7908301846112b6565b9695505050505050565b6000602082840312156116d357600080fd5b8151610f208161125f56fea26469706673582212209065e03eeaa3b9f2371497c59531622ca496b1519296d7bf744f4848b951a21b64736f6c634300081c00334142434445464748494a4b4c4d4e4f505152535455565758595a6162636465666768696a6b6c6d6e6f707172737475767778797a303132333435363738392b2f",
  "linkReferences": {},
  "deployedLinkReferences": {}
}