{
  "_format": "hh-sol-artifact-1",
  "contractName": "Mame42",
  "sourceName": "code/Mame42.sol",
  "abi": [
    {
      "inputs": [
        {
          "internalType": "string",
          "name": "json",
          "type": "string"
        },
        {
          "internalType": "uint256",
          "name": "newPrice",
          "type": "uint256"
        }
      ],
      "stateMutability": "nonpayable",
      "type": "constructor"
    },
    {
      "inputs": [
        {
          "internalType": "address",
          "name": "sender",
          "type": "address"
        },
        {
          "internalType": "uint256",
          "name": "tokenId",
          "type": "uint256"
        },
        {
          "internalType": "address",
          "name": "owner",
          "type": "address"
        }
      ],
      "name": "ERC721IncorrectOwner",
      "type": "error"
    },
    {
      "inputs": [
        {
          "internalType": "address",
          "name": "operator",
          "type": "address"
        },
        {
          "internalType": "uint256",
          "name": "tokenId",
          "type": "uint256"
        }
      ],
      "name": "ERC721InsufficientApproval",
      "type": "error"
    },
    {
      "inputs": [
        {
          "internalType": "address",
          "name": "approver",
          "type": "address"
        }
      ],
      "name": "ERC721InvalidApprover",
      "type": "error"
    },
    {
      "inputs": [
        {
          "internalType": "address",
          "name": "operator",
          "type": "address"
        }
      ],
      "name": "ERC721InvalidOperator",
      "type": "error"
    },
    {
      "inputs": [
        {
          "internalType": "address",
          "name": "owner",
          "type": "address"
        }
      ],
      "name": "ERC721InvalidOwner",
      "type": "error"
    },
    {
      "inputs": [
        {
          "internalType": "address",
          "name": "receiver",
          "type": "address"
        }
      ],
      "name": "ERC721InvalidReceiver",
      "type": "error"
    },
    {
      "inputs": [
        {
          "internalType": "address",
          "name": "sender",
          "type": "address"
        }
      ],
      "name": "ERC721InvalidSender",
      "type": "error"
    },
    {
      "inputs": [
        {
          "internalType": "uint256",
          "name": "tokenId",
          "type": "uint256"
        }
      ],
      "name": "ERC721NonexistentToken",
      "type": "error"
    },
    {
      "inputs": [
        {
          "internalType": "address",
          "name": "owner",
          "type": "address"
        }
      ],
      "name": "OwnableInvalidOwner",
      "type": "error"
    },
    {
      "inputs": [
        {
          "internalType": "address",
          "name": "account",
          "type": "address"
        }
      ],
      "name": "OwnableUnauthorizedAccount",
      "type": "error"
    },
    {
      "anonymous": false,
      "inputs": [
        {
          "indexed": true,
          "internalType": "address",
          "name": "owner",
          "type": "address"
        },
        {
          "indexed": true,
          "internalType": "address",
          "name": "approved",
          "type": "address"
        },
        {
          "indexed": true,
          "internalType": "uint256",
          "name": "tokenId",
          "type": "uint256"
        }
      ],
      "name": "Approval",
      "type": "event"
    },
    {
      "anonymous": false,
      "inputs": [
        {
          "indexed": true,
          "internalType": "address",
          "name": "owner",
          "type": "address"
        },
        {
          "indexed": true,
          "internalType": "address",
          "name": "operator",
          "type": "address"
        },
        {
          "indexed": false,
          "internalType": "bool",
          "name": "approved",
          "type": "bool"
        }
      ],
      "name": "ApprovalForAll",
      "type": "event"
    },
    {
      "anonymous": false,
      "inputs": [
        {
          "indexed": false,
          "internalType": "uint256",
          "name": "_fromTokenId",
          "type": "uint256"
        },
        {
          "indexed": false,
          "internalType": "uint256",
          "name": "_toTokenId",
          "type": "uint256"
        }
      ],
      "name": "BatchMetadataUpdate",
      "type": "event"
    },
    {
      "anonymous": false,
      "inputs": [
        {
          "indexed": false,
          "internalType": "uint256",
          "name": "_tokenId",
          "type": "uint256"
        }
      ],
      "name": "MetadataUpdate",
      "type": "event"
    },
    {
      "anonymous": false,
      "inputs": [
        {
          "indexed": true,
          "internalType": "address",
          "name": "previousOwner",
          "type": "address"
        },
        {
          "indexed": true,
          "internalType": "address",
          "name": "newOwner",
          "type": "address"
        }
      ],
      "name": "OwnershipTransferred",
      "type": "event"
    },
    {
      "anonymous": false,
      "inputs": [
        {
          "indexed": true,
          "internalType": "address",
          "name": "from",
          "type": "address"
        },
        {
          "indexed": true,
          "internalType": "address",
          "name": "to",
          "type": "address"
        },
        {
          "indexed": true,
          "internalType": "uint256",
          "name": "tokenId",
          "type": "uint256"
        }
      ],
      "name": "Transfer",
      "type": "event"
    },
    {
      "inputs": [
        {
          "internalType": "address",
          "name": "to",
          "type": "address"
        },
        {
          "internalType": "uint256",
          "name": "tokenId",
          "type": "uint256"
        }
      ],
      "name": "approve",
      "outputs": [],
      "stateMutability": "nonpayable",
      "type": "function"
    },
    {
      "inputs": [
        {
          "internalType": "address",
          "name": "owner",
          "type": "address"
        }
      ],
      "name": "balanceOf",
      "outputs": [
        {
          "internalType": "uint256",
          "name": "",
          "type": "uint256"
        }
      ],
      "stateMutability": "view",
      "type": "function"
    },
    {
      "inputs": [
        {
          "internalType": "uint256",
          "name": "tokenId",
          "type": "uint256"
        }
      ],
      "name": "getApproved",
      "outputs": [
        {
          "internalType": "address",
          "name": "",
          "type": "address"
        }
      ],
      "stateMutability": "view",
      "type": "function"
    },
    {
      "inputs": [
        {
          "internalType": "address",
          "name": "owner",
          "type": "address"
        },
        {
          "internalType": "address",
          "name": "operator",
          "type": "address"
        }
      ],
      "name": "isApprovedForAll",
      "outputs": [
        {
          "internalType": "bool",
          "name": "",
          "type": "bool"
        }
      ],
      "stateMutability": "view",
      "type": "function"
    },
    {
      "inputs": [],
      "name": "isSold",
      "outputs": [
        {
          "internalType": "bool",
          "name": "",
          "type": "bool"
        }
      ],
      "stateMutability": "view",
      "type": "function"
    },
    {
      "inputs": [],
      "name": "mintNFT",
      "outputs": [
        {
          "internalType": "uint256",
          "name": "",
          "type": "uint256"
        }
      ],
      "stateMutability": "payable",
      "type": "function"
    },
    {
      "inputs": [],
      "name": "name",
      "outputs": [
        {
          "internalType": "string",
          "name": "",
          "type": "string"
        }
      ],
      "stateMutability": "view",
      "type": "function"
    },
    {
      "inputs": [],
      "name": "owner",
      "outputs": [
        {
          "internalType": "address",
          "name": "",
          "type": "address"
        }
      ],
      "stateMutability": "view",
      "type": "function"
    },
    {
      "inputs": [
        {
          "internalType": "uint256",
          "name": "tokenId",
          "type": "uint256"
        }
      ],
      "name": "ownerOf",
      "outputs": [
        {
          "internalType": "address",
          "name": "",
          "type": "address"
        }
      ],
      "stateMutability": "view",
      "type": "function"
    },
    {
      "inputs": [],
      "name": "price",
      "outputs": [
        {
          "internalType": "uint256",
          "name": "",
          "type": "uint256"
        }
      ],
      "stateMutability": "view",
      "type": "function"
    },
    {
      "inputs": [],
      "name": "renounceOwnership",
      "outputs": [],
      "stateMutability": "nonpayable",
      "type": "function"
    },
    {
      "inputs": [
        {
          "internalType": "address",
          "name": "from",
          "type": "address"
        },
        {
          "internalType": "address",
          "name": "to",
          "type": "address"
        },
        {
          "internalType": "uint256",
          "name": "tokenId",
          "type": "uint256"
        }
      ],
      "name": "safeTransferFrom",
      "outputs": [],
      "stateMutability": "nonpayable",
      "type": "function"
    },
    {
      "inputs": [
        {
          "internalType": "address",
          "name": "from",
          "type": "address"
        },
        {
          "internalType": "address",
          "name": "to",
          "type": "address"
        },
        {
          "internalType": "uint256",
          "name": "tokenId",
          "type": "uint256"
        },
        {
          "internalType": "bytes",
          "name": "data",
          "type": "bytes"
        }
      ],
      "name": "safeTransferFrom",
      "outputs": [],
      "stateMutability": "nonpayable",
      "type": "function"
    },
    {
      "inputs": [
        {
          "internalType": "address",
          "name": "operator",
          "type": "address"
        },
        {
          "internalType": "bool",
          "name": "approved",
          "type": "bool"
        }
      ],
      "name": "setApprovalForAll",
      "outputs": [],
      "stateMutability": "nonpayable",
      "type": "function"
    },
    {
      "inputs": [
        {
          "internalType": "uint256",
          "name": "newPrice",
          "type": "uint256"
        }
      ],
      "name": "setPrice",
      "outputs": [],
      "stateMutability": "nonpayable",
      "type": "function"
    },
    {
      "inputs": [
        {
          "internalType": "bytes4",
          "name": "interfaceId",
          "type": "bytes4"
        }
      ],
      "name": "supportsInterface",
      "outputs": [
        {
          "internalType": "bool",
          "name": "",
          "type": "bool"
        }
      ],
      "stateMutability": "view",
      "type": "function"
    },
    {
      "inputs": [],
      "name": "symbol",
      "outputs": [
        {
          "internalType": "string",
          "name": "",
          "type": "string"
        }
      ],
      "stateMutability": "view",
      "type": "function"
    },
    {
      "inputs": [],
      "name": "tokenMetadata",
      "outputs": [
        {
          "internalType": "string",
          "name": "",
          "type": "string"
        }
      ],
      "stateMutability": "view",
      "type": "function"
    },
    {
      "inputs": [
        {
          "internalType": "uint256",
          "name": "tokenId",
          "type": "uint256"
        }
      ],
      "name": "tokenURI",
      "outputs": [
        {
          "internalType": "string",
          "name": "",
          "type": "string"
        }
      ],
      "stateMutability": "view",
      "type": "function"
    },
    {
      "inputs": [
        {
          "internalType": "address",
          "name": "from",
          "type": "address"
        },
        {
          "internalType": "address",
          "name": "to",
          "type": "address"
        },
        {
          "internalType": "uint256",
          "name": "tokenId",
          "type": "uint256"
        }
      ],
      "name": "transferFrom",
      "outputs": [],
      "stateMutability": "nonpayable",
      "type": "function"
    },
    {
      "inputs": [
        {
          "internalType": "address",
          "name": "newOwner",
          "type": "address"
        }
      ],
      "name": "transferOwnership",
      "outputs": [],
      "stateMutability": "nonpayable",
      "type": "function"
    }
  ],
  "bytecode": "0x600060088190556009805460ff1916905560a06040526080908152600a9061002790826103af565b5034801561003457600080fd5b50604051611c8a380380611c8a8339810160408190526100539161046d565b336040518060400160405280600681526020016526b0b6b29a1960d11b815250604051806040016040528060038152602001624d414d60e81b815250816000908161009e91906103af565b5060016100ab82826103af565b5050506001600160a01b0381166100dc57604051631e4fbdf760e01b81526000600482015260240160405180910390fd5b6100e581610111565b5060006100f183610163565b9050600a6100ff82826103af565b5061010982600855565b50505061059f565b600780546001600160a01b038381166001600160a01b0319831681179093556040519116919082907f8be0079c531659141344cd1fd0a4f28419497f9722a3daafe3b4186f6b6457e090600090a35050565b606061018982604051806060016040528060408152602001611c4a60409139600161018f565b92915050565b606083516000036101af5750604080516020810190915260008152610309565b6000826101e0576003855160046101c69190610553565b6101d190600261056a565b6101db919061057d565b610205565b6003855160026101f0919061056a565b6101fa919061057d565b610205906004610553565b90506000816001600160401b0381111561022157610221610310565b6040519080825280601f01601f19166020018201604052801561024b576020820181803683370190505b50905060018501602082018788518901602081018051600082525b828410156102c1576003840193508351603f8160121c168701518653600186019550603f81600c1c168701518653600186019550603f8160061c168701518653600186019550603f8116870151865350600185019450610266565b905250508515610302576003885106600181146102e557600281146102f857610300565b603d6001830353603d6002830353610300565b603d60018303535b505b5090925050505b9392505050565b634e487b7160e01b600052604160045260246000fd5b600181811c9082168061033a57607f821691505b60208210810361035a57634e487b7160e01b600052602260045260246000fd5b50919050565b601f8211156103aa57806000526020600020601f840160051c810160208510156103875750805b601f840160051c820191505b818110156103a75760008155600101610393565b50505b505050565b81516001600160401b038111156103c8576103c8610310565b6103dc816103d68454610326565b84610360565b6020601f82116001811461041057600083156103f85750848201515b600019600385901b1c1916600184901b1784556103a7565b600084815260208120601f198516915b828110156104405787850151825560209485019460019092019101610420565b508482101561045e5786840151600019600387901b60f8161c191681555b50505050600190811b01905550565b6000806040838503121561048057600080fd5b82516001600160401b0381111561049657600080fd5b8301601f810185136104a757600080fd5b80516001600160401b038111156104c0576104c0610310565b604051601f8201601f19908116603f011681016001600160401b03811182821017156104ee576104ee610310565b60405281815282820160200187101561050657600080fd5b60005b8281101561052557602081850181015183830182015201610509565b50600060209282018301529401519395939450505050565b634e487b7160e01b600052601160045260246000fd5b80820281158282048414176101895761018961053d565b808201808211156101895761018961053d565b60008261059a57634e487b7160e01b600052601260045260246000fd5b500490565b61169c806105ae6000396000f3fe60806040526004361061012a5760003560e01c80638da5cb5b116100ab578063b88d4fde1161006f578063b88d4fde14610314578063c87b56dd14610334578063e852e74114610354578063e985e9c51461036c578063f2fde38b1461038c578063f5b2cad7146103ac57600080fd5b80638da5cb5b1461028b57806391b7f5ed146102a957806395d89b41146102c9578063a035b1fe146102de578063a22cb465146102f457600080fd5b806323b872dd116100f257806323b872dd146101f657806342842e0e146102165780636352211e1461023657806370a0823114610256578063715018a61461027657600080fd5b806301ffc9a71461012f57806306fdde0314610164578063081812fc14610186578063095ea7b3146101be57806314f710fe146101e0575b600080fd5b34801561013b57600080fd5b5061014f61014a3660046111fd565b6103c1565b60405190151581526020015b60405180910390f35b34801561017057600080fd5b506101796103ec565b60405161015b919061126a565b34801561019257600080fd5b506101a66101a136600461127d565b61047e565b6040516001600160a01b03909116815260200161015b565b3480156101ca57600080fd5b506101de6101d93660046112b2565b6104a7565b005b6101e86104b6565b60405190815260200161015b565b34801561020257600080fd5b506101de6102113660046112dc565b610603565b34801561022257600080fd5b506101de6102313660046112dc565b61068e565b34801561024257600080fd5b506101a661025136600461127d565b6106ae565b34801561026257600080fd5b506101e8610271366004611319565b6106b9565b34801561028257600080fd5b506101de610701565b34801561029757600080fd5b506007546001600160a01b03166101a6565b3480156102b557600080fd5b506101de6102c436600461127d565b610715565b3480156102d557600080fd5b50610179610729565b3480156102ea57600080fd5b506101e860085481565b34801561030057600080fd5b506101de61030f366004611334565b610738565b34801561032057600080fd5b506101de61032f366004611386565b610743565b34801561034057600080fd5b5061017961034f36600461127d565b61075b565b34801561036057600080fd5b5060095460ff1661014f565b34801561037857600080fd5b5061014f61038736600461146a565b610891565b34801561039857600080fd5b506101de6103a7366004611319565b6108bf565b3480156103b857600080fd5b506101796108fa565b60006001600160e01b03198216632483248360e11b14806103e657506103e682610988565b92915050565b6060600080546103fb9061149d565b80601f01602080910402602001604051908101604052809291908181526020018280546104279061149d565b80156104745780601f1061044957610100808354040283529160200191610474565b820191906000526020600020905b81548152906001019060200180831161045757829003601f168201915b5050505050905090565b6000610489826109d8565b506000828152600460205260409020546001600160a01b03166103e6565b6104b2828233610a11565b5050565b60095460009060ff16156105065760405162461bcd60e51b815260206004820152601260248201527113919508185b1c9958591e481b5a5b9d195960721b60448201526064015b60405180910390fd5b60085434101561054f5760405162461bcd60e51b8152602060048201526014602482015273125b9cdd59999a58da595b9d081c185e5b595b9d60621b60448201526064016104fd565b61055a336001610a1e565b6105ef6001600a805461056c9061149d565b80601f01602080910402602001604051908101604052809291908181526020018280546105989061149d565b80156105e55780601f106105ba576101008083540402835291602001916105e5565b820191906000526020600020905b8154815290600101906020018083116105c857829003601f168201915b5050505050610a83565b506009805460ff1916600190811790915590565b6001600160a01b03821661062d57604051633250574960e11b8152600060048201526024016104fd565b600061063a838333610ad3565b9050836001600160a01b0316816001600160a01b031614610688576040516364283d7b60e01b81526001600160a01b03808616600483015260248201849052821660448201526064016104fd565b50505050565b6106a983838360405180602001604052806000815250610743565b505050565b60006103e6826109d8565b60006001600160a01b0382166106e5576040516322718ad960e21b8152600060048201526024016104fd565b506001600160a01b031660009081526003602052604090205490565b610709610bcc565b6107136000610bf9565b565b61071d610bcc565b61072681600855565b50565b6060600180546103fb9061149d565b6104b2338383610c4b565b61074e848484610603565b6106883385858585610cea565b6060610766826109d8565b50600082815260066020526040812080546107809061149d565b80601f01602080910402602001604051908101604052809291908181526020018280546107ac9061149d565b80156107f95780601f106107ce576101008083540402835291602001916107f9565b820191906000526020600020905b8154815290600101906020018083116107dc57829003601f168201915b50505050509050600061083c60408051808201909152601d81527f646174613a6170706c69636174696f6e2f6a736f6e3b6261736536342c000000602082015290565b9050805160000361084e575092915050565b8151156108805780826040516020016108689291906114d7565b60405160208183030381529060405292505050919050565b61088984610e15565b949350505050565b6001600160a01b03918216600090815260056020908152604080832093909416825291909152205460ff1690565b6108c7610bcc565b6001600160a01b0381166108f157604051631e4fbdf760e01b8152600060048201526024016104fd565b61072681610bf9565b600a80546109079061149d565b80601f01602080910402602001604051908101604052809291908181526020018280546109339061149d565b80156109805780601f1061095557610100808354040283529160200191610980565b820191906000526020600020905b81548152906001019060200180831161096357829003601f168201915b505050505081565b60006001600160e01b031982166380ac58cd60e01b14806109b957506001600160e01b03198216635b5e139f60e01b145b806103e657506301ffc9a760e01b6001600160e01b03198316146103e6565b6000818152600260205260408120546001600160a01b0316806103e657604051637e27328960e01b8152600481018490526024016104fd565b6106a98383836001610eaf565b6001600160a01b038216610a4857604051633250574960e11b8152600060048201526024016104fd565b6000610a5683836000610ad3565b90506001600160a01b038116156106a9576040516339e3563760e11b8152600060048201526024016104fd565b6000828152600660205260409020610a9b828261154d565b506040518281527ff8e1a15aba9398e019f0b49df1a4fde98ee17ae345cb5f6b5e2c27f5033e8ce79060200160405180910390a15050565b6000828152600260205260408120546001600160a01b0390811690831615610b0057610b00818486610fb5565b6001600160a01b03811615610b3e57610b1d600085600080610eaf565b6001600160a01b038116600090815260036020526040902080546000190190555b6001600160a01b03851615610b6d576001600160a01b0385166000908152600360205260409020805460010190555b60008481526002602052604080822080546001600160a01b0319166001600160a01b0389811691821790925591518793918516917fddf252ad1be2c89b69c2b068fc378daa952ba7f163c4a11628f55a4df523b3ef91a4949350505050565b6007546001600160a01b031633146107135760405163118cdaa760e01b81523360048201526024016104fd565b600780546001600160a01b038381166001600160a01b0319831681179093556040519116919082907f8be0079c531659141344cd1fd0a4f28419497f9722a3daafe3b4186f6b6457e090600090a35050565b6001600160a01b038216610c7d57604051630b61174360e31b81526001600160a01b03831660048201526024016104fd565b6001600160a01b03838116600081815260056020908152604080832094871680845294825291829020805460ff191686151590811790915591519182527f17307eab39ab6107e8899845ad3d59bd9653f200f220920489ca2b5937696c31910160405180910390a3505050565b6001600160a01b0383163b15610e0e57604051630a85bd0160e11b81526001600160a01b0384169063150b7a0290610d2c90889088908790879060040161160c565b6020604051808303816000875af1925050508015610d67575060408051601f3d908101601f19168201909252610d6491810190611649565b60015b610dd0573d808015610d95576040519150601f19603f3d011682016040523d82523d6000602084013e610d9a565b606091505b508051600003610dc857604051633250574960e11b81526001600160a01b03851660048201526024016104fd565b805181602001fd5b6001600160e01b03198116630a85bd0160e11b14610e0c57604051633250574960e11b81526001600160a01b03851660048201526024016104fd565b505b5050505050565b6060610e20826109d8565b506000610e5d60408051808201909152601d81527f646174613a6170706c69636174696f6e2f6a736f6e3b6261736536342c000000602082015290565b90506000815111610e7d5760405180602001604052806000815250610ea8565b80610e8784611019565b604051602001610e989291906114d7565b6040516020818303038152906040525b9392505050565b8080610ec357506001600160a01b03821615155b15610f85576000610ed3846109d8565b90506001600160a01b03831615801590610eff5750826001600160a01b0316816001600160a01b031614155b8015610f125750610f108184610891565b155b15610f3b5760405163a9fbf51f60e01b81526001600160a01b03841660048201526024016104fd565b8115610f835783856001600160a01b0316826001600160a01b03167f8c5be1e5ebec7d5bd14f71427d1e84f3dd0314c0f7b2291e5b200ac8c7c3b92560405160405180910390a45b505b5050600090815260046020526040902080546001600160a01b0319166001600160a01b0392909216919091179055565b610fc08383836110ac565b6106a9576001600160a01b038316610fee57604051637e27328960e01b8152600481018290526024016104fd565b60405163177e802f60e01b81526001600160a01b0383166004820152602481018290526044016104fd565b606060006110268361110f565b600101905060008167ffffffffffffffff81111561104657611046611370565b6040519080825280601f01601f191660200182016040528015611070576020820181803683370190505b5090508181016020015b600019016f181899199a1a9b1b9c1cb0b131b232b360811b600a86061a8153600a850494508461107a57509392505050565b60006001600160a01b038316158015906108895750826001600160a01b0316846001600160a01b031614806110e657506110e68484610891565b806108895750506000908152600460205260409020546001600160a01b03908116911614919050565b60008072184f03e93ff9f4daa797ed6e38ed64bf6a1f0160401b831061114e5772184f03e93ff9f4daa797ed6e38ed64bf6a1f0160401b830492506040015b6d04ee2d6d415b85acef8100000000831061117a576d04ee2d6d415b85acef8100000000830492506020015b662386f26fc10000831061119857662386f26fc10000830492506010015b6305f5e10083106111b0576305f5e100830492506008015b61271083106111c457612710830492506004015b606483106111d6576064830492506002015b600a83106103e65760010192915050565b6001600160e01b03198116811461072657600080fd5b60006020828403121561120f57600080fd5b8135610ea8816111e7565b60005b8381101561123557818101518382015260200161121d565b50506000910152565b6000815180845261125681602086016020860161121a565b601f01601f19169290920160200192915050565b602081526000610ea8602083018461123e565b60006020828403121561128f57600080fd5b5035919050565b80356001600160a01b03811681146112ad57600080fd5b919050565b600080604083850312156112c557600080fd5b6112ce83611296565b946020939093013593505050565b6000806000606084860312156112f157600080fd5b6112fa84611296565b925061130860208501611296565b929592945050506040919091013590565b60006020828403121561132b57600080fd5b610ea882611296565b6000806040838503121561134757600080fd5b61135083611296565b91506020830135801515811461136557600080fd5b809150509250929050565b634e487b7160e01b600052604160045260246000fd5b6000806000806080858703121561139c57600080fd5b6113a585611296565b93506113b360208601611296565b925060408501359150606085013567ffffffffffffffff8111156113d657600080fd5b8501601f810187136113e757600080fd5b803567ffffffffffffffff81111561140157611401611370565b604051601f8201601f19908116603f0116810167ffffffffffffffff8111828210171561143057611430611370565b60405281815282820160200189101561144857600080fd5b8160208401602083013760006020838301015280935050505092959194509250565b6000806040838503121561147d57600080fd5b61148683611296565b915061149460208401611296565b90509250929050565b600181811c908216806114b157607f821691505b6020821081036114d157634e487b7160e01b600052602260045260246000fd5b50919050565b600083516114e981846020880161121a565b8351908301906114fd81836020880161121a565b01949350505050565b601f8211156106a957806000526020600020601f840160051c8101602085101561152d5750805b601f840160051c820191505b81811015610e0e5760008155600101611539565b815167ffffffffffffffff81111561156757611567611370565b61157b81611575845461149d565b84611506565b6020601f8211600181146115af57600083156115975750848201515b600019600385901b1c1916600184901b178455610e0e565b600084815260208120601f198516915b828110156115df57878501518255602094850194600190920191016115bf565b50848210156115fd5786840151600019600387901b60f8161c191681555b50505050600190811b01905550565b6001600160a01b038581168252841660208201526040810183905260806060820181905260009061163f9083018461123e565b9695505050505050565b60006020828403121561165b57600080fd5b8151610ea8816111e756fea2646970667358221220c93639b613f3227c4a05db2f4d98c4199028ccf971a5e43eae3f06965250471664736f6c634300081c00334142434445464748494a4b4c4d4e4f505152535455565758595a6162636465666768696a6b6c6d6e6f707172737475767778797a303132333435363738392b2f",
  "linkReferences": {},
  "deployedLinkReferences": {}
}